:020000040800F2
:1000000068080020C51C0008D5050008D7050008B1
:10001000DB050008DF050008E3050008000000001C
:10002000000000000000000000000000E7050008DC
:10003000E905000800000000EB050008ED050008D8
:1000400051080008DF1C0008DF1C0008DF1C000846
:10005000DF1C0008DF1C0008DF1C0008DF1C000894
:1000600083120008D9120008DF1C0008DF1C0008FA
:10007000DF1C0008DF1C0008DF1C0008DF1C000874
:10008000DF1C0008DF1C0008DF1C0008DF1C000864
:10009000DF1C0008DF1C0008DF1C0008DF1C000854
:1000A000DF1C0008DF1C0008DF1C00081D0C000816
:1000B000810D0008DF1C00081D0B0008DF1C000874
:1000C000DF1C0008DF1C0008DF1C0008DF1C000824
:1000D000DF1C000859150008DF1C0008DF1C0008A1
:1000E000DF1C0008DF1C0008DF1C0008DF1C000804
:1000F000DF1C0008DF1C0008DF1C0008DF1C0008F4
:10010000DF1C0008DF1C0008850E0008DF1C00084B
:10011000DF1C0008DF1C000891160008DF1C000827
:10012000DF1C0008DF1C0008DF1C0008DF1C0008C3
:1001300000F002F800F04AF80AA090E8000C8244AF
:100140008344AAF10107DA4501D100F03FF8AFF28C
:10015000090EBAE80F0013F0010F18BFFB1A43F0A5
:10016000010318477C5A00009C5A0000103A24BF33
:1001700078C878C1FAD8520724BF30C830C144BF0C
:1001800004680C607047000000230024002500264E
:10019000103A28BF78C1FBD8520728BF30C148BFEA
:1001A0000B607047662905F0CE84642903F0A284B1
:1001B000002070471FB503F05BFF04000020002102
:1001C00004F0AEFCE0601FBD10B510BD04F06CF88B
:1001D0001146FFF7EFFF00F009F804F08AF803B4C6
:1001E000FFF7F2FF03BC01F055F900001FB500F066
:1001F0006DFA482001F0F4F801F046F900F076FEBF
:100200004FF4165001F059F9BE4ABF4BBFA003F09E
:1002100031FC0022C04BC1A003F02CFC4FF0CC32CB
:10022000C04BC1A003F026FC00F0B5FE00F06EFF4D
:100230000020BF49086000F013FB00F085FF01F0CB
:10024000DDFA01F081F800F0DDFF4721632000F0C6
:100250009FFB47214FF6FF7000F0FFFB47214FF651
:10026000FF7000F079FC47214FF6FF7000F01CFD95
:1002700047214FF6FF7000F0A4FD00200121CDE9D9
:10028000001003460A46CDE902100146012000F0A5
:10029000FEFAA84A4FF07B51A74801F0D3FA48F67E
:1002A0009F41282001F09EF90121A44802F066FD3B
:1002B00027E1A348008810F4004FF9D000219F489F
:1002C00002F05CFD01F03BFC9D4804789DA003F02A
:1002D000D1FB4FF0000910E09D4810F809109D482F
:1002E00003F066F900BF40219A4803F0CFF90128D6
:1002F000F9D109F1010000F0FF09A145ECDB96A05E
:1003000003F0B8FB0F2C7DD1914840789349C87019
:100310008F48807808718E48C07848718C48007981
:1003200088718B4880798E49C8708948C079087176
:100330008748007A48718648407A88718448C07A34
:100340008849C8708248007B08718148407B4871A9
:100350007F48807B887100F01EFE7D4880783038B1
:10036000642148437A49C978303901EB810100EBB7
:10037000410177480079303808447B490860744867
:1003800040782D2803D10846006840420860704834
:10039000C0793038642148436D49097A303901EB1E
:1003A000810100EB41016A48407A303808446F49C6
:1003B0000860674880792D2803D1084600684042CC
:1003C00008606349097B303964225143604A527B9B
:1003D000303A02EB820201EB42025D49897B3039FF
:1003E000501805F0DDF9624908600846006805F01C
:1003F0000BF8074600225F4B04F082FC054604F030
:10040000A5FB00E063E05A4908605148C07A2D28F6
:1004100004D10846006880F0004008605248016836
:1004200055A003F027FB5148016855A003F022FBBB
:100430004F48006804F0E8FF05462A460B4652A0E4
:1004400003F018FB52485349534A544BCDE900215D
:10045000029047480268454801684348006801F037
:10046000A7FB4E48006804F0CFFF05462A460B461E
:100470004BA003F0FFFA4848006804F0C5FF0546AA
:100480002A460B4648A003F0F5FA4248006804F0FB
:10049000BBFF05462A460B4645A003F0EBFA3C4855
:1004A000006804F0B1FF05462A460B4642A003F05F
:1004B000E1FA374803683748026837480168374827
:1004C000006801F0D0F901211C4802F057FC022C11
:1004D00013D11F48007842280FD11D4840784C287E
:1004E0000BD137480078012807D136490870002021
:1004F0003349087034A003F0BDFA00201049088089
:100500000024D6E6191818181818DC3F4B50503D37
:1005100025660D0A000000000000D83F4B693D250C
:10052000660D0A00CCCCBC3F4B643D25660D0A002D
:10053000BC0123426666E63DC1C0E03E00100040BB
:10054000940000204D43555F4745543A0000000099
:100550003C010020003801400D0A00005C00002032
:100560006C0000207C0000209C000020A0000020E7
:10057000A400002000005940583D25640D0A0000E9
:10058000593D25640D0A0000573D25660D0A0000FF
:10059000B4000020B0000020AC000020A800002023
:1005A00057313D25660D0A0057323D25660D0A007C
:1005B00057333D25660D0A0057343D25660D0A0068
:1005C0002300002024000020626C75655F4F4B0DF6
:1005D0000A000000704700BFFEE700BFFEE700BF53
:1005E000FEE700BFFEE770477047704770470000A6
:1005F0000CB50020019000906B48006840F48030FA
:100600006949086000BF6848006800F40030009045
:100610000198401C0190009818B90198B0F5A06F9E
:10062000F1D16148006810F4003F02D00120009031
:1006300001E0002000900098012842D15B4800684A
:1006400040F01000594908600846006820F0030097
:1006500008600846006840F00200086052484068A0
:10066000514948600846406848600846406840F480
:10067000806048600846406820F47C104860084666
:10068000406840F4E81048600846006840F0807018
:10069000086000BF4448006810F0007FFAD042486C
:1006A000406820F00300404948600846406840F038
:1006B0000200486000BF3C48406800F00C00082879
:1006C000F9D10CBD10B5FFF793FF10BD10B536483A
:1006D000006840F001003449086008464068344929
:1006E00008403149486008460068324908402E49B0
:1006F00008600846006820F48020086008464068CA
:1007000020F4FE0048604FF41F008860FFF7DAFF16
:100710004FF000602849086010BD10B5002100208E
:100720000022214B5B6803F00C0121B1042906D0A3
:10073000082928D107E0214B214C236027E01F4BDB
:100740001F4C236023E0184B5B6803F47010164BBA
:100750005B6803F48032022303EB904022B9194B0B
:100760004343174C23600DE00F4B5B6813F4003FCD
:1007700004D0144B4343124C236003E00F4B43431C
:100780000F4C236003E00D4B0D4C236000BF00BFF6
:10079000054B5B68C3F303130B4CE15C084B1B6810
:1007A000CB40074C236010BD0010024000200240E7
:1007B0000000FFF8FFFFF6FE08ED00E000127A00EF
:1007C0003800002000093D003C00002070B50546BF
:1007D0000C4645F2555001F0AFFC284601F0AFFC45
:1007E000204601F0AFFC01F0B0FC01F0B3FC70BD9D
:1007F00010B501F0AAFC10BD08B500208DF800006E
:1008000002208DF8010003208DF80200684601F0F7
:100810007EFA08BD70B506460C4615460121C80291
:1008200001F021FE284602F096FF204602F09CFFD0
:10083000304602F0B4FF02F0BDFFFFF7DDFF02F02B
:10084000A4FF70BD10B50446204602F0A8FF10BDFD
:1008500010B57F2002F09DFF02F0ACFF10BD00003C
:1008600008B50121802001F0F1FDFF20ADF8000066
:1008700010208DF8030003208DF802006946F64829
:1008800001F00EFBFF21F44801F0B7FB08BD2DE994
:10089000F05F04460F4615461E46DDE90CABDDE968
:1008A0000A89012C07D1ED4908604FF00000EC499E
:1008B000C1F8880107E00020E84908604FF0010016
:1008C000E749C1F88801012D08D10120E5490860F8
:1008D0004FF00000E249C1F8980107E00020E1492B
:1008E00008604FF00100DE49C1F89801B8F1010F2E
:1008F00008D10120DC4908604FF00000D849C1F858
:100900008C0107E00020D84908604FF00100D4496D
:10091000C1F88C01BAF1010F08D10120D349086058
:100920004FF00000CE49C1F89C0107E00020CF49FC
:1009300008604FF00100CA49C1F89C013946CC4813
:1009400002F0B4FC3146CA4802F0B2FC4946C8483D
:1009500002F0B0FC5946C64802F0AEFCBDE8F09F7C
:100960002DE9F04104460F4615461E462146C04873
:1009700002F09CFC3946BE4802F09AFC2946BC486D
:1009800002F098FC3146BA4802F096FCBDE8F081CE
:1009900030B589B005460C460121022001F063FD07
:1009A0000121112001F052FD0121B24801F047FB65
:1009B0004FF47070ADF8200018208DF8230003204C
:1009C0008DF8220008A9AC4801F06AFA4FF4707162
:1009D000A94801F012FBADF81850ADF81440002002
:1009E000ADF81A00ADF8160005A9A14801F06AFE9D
:1009F0006020ADF804000120ADF806000020ADF83D
:100A00000A00ADF80C0001A9994801F098FE0821F0
:100A1000974802F0E3FA01A9954801F0D2FE0821B7
:100A2000934802F0E4FA01A9914801F017FF082168
:100A30008F4802F0E9FA01A98D4801F05AFF082118
:100A40008B4802F0EAFA0121894802F097FA012165
:100A5000874802F093F909B030BD30B589B005463A
:100A60000C460121042001F0FEFC0121082001F0C8
:100A7000EDFC8020ADF8040048208DF8070003202D
:100A80008DF8060001A97D4801F00AFAADF81C5066
:100A9000ADF818400020ADF81E00ADF81A0006A908
:100AA000774801F00FFE1E208DF8140001208DF80C
:100AB00015008DF816008DF8170005A801F027F92C
:100AC0000420ADF808000020ADF80A000120ADF8C0
:100AD0000C000020ADF80E000320ADF8100002A9B4
:100AE000674802F0CDF86021654802F081F90421E1
:100AF000634802F0C5FB8021614802F0CAFB012275
:100B000005215F4802F055F905215D4802F010FC0F
:100B100001215B4802F032F909B030BD10B5042163
:100B2000574802F0F4FB90B1554802F0D1FB55490B
:100B30000880534802F0CFFBB0F5167F04DD504823
:100B400002F0C9FB50490880002050490870052177
:100B50004B4802F0EDFB10BD30B589B005460C46A0
:100B60000121C80201F072FC0121402001F06EFC5D
:100B70000121474801F063FA4FF40060ADF804002A
:100B800048208DF8070003208DF8060001A9414890
:100B900001F086F9ADF81C50ADF818400020ADF812
:100BA0001E00ADF81A0006A93B4801F08BFD1B2082
:100BB0008DF8140001208DF815008DF816008DF8C1
:100BC000170005A801F0A3F80420ADF808000020E4
:100BD000ADF80A000120ADF80C000020ADF80E00C1
:100BE0000320ADF8100002A92B4802F049F860215B
:100BF000294802F0FDF80421274802F041FB80213A
:100C0000254802F046FB01220421234802F0D1F8D6
:100C10000121214802F0B2F809B030BD10B504211D
:100C20001D4802F074FB90B11B4802F051FB1B49B8
:100C30000880194802F04FFBB0F5167F04DD164816
:100C400002F049FB1649088000201649087005216A
:100C5000114802F06DFB10BD001C01408081234251
:100C60000080234290812342848123429481234245
:100C700000040040000C1A0000100140000C01406C
:100C8000000800400A000020080000200C0000209E
:100C9000C000160000180140002C01400400002094
:100CA000020000200600002030B589B005460C4641
:100CB0000121084601F0D7FB0121092001F0C6FB04
:100CC00001217F4801F0BBF901217E4801F0B7F90D
:100CD0000820ADF8040048208DF8070003208DF8A7
:100CE000060001A9784801F0DBF8ADF81C50ADF81A
:100CF00018400020ADF81E00ADF81A0006A94FF00C
:100D0000804001F0DFFC1C208DF8140001208DF8DC
:100D100015008DF816008DF8170005A800F0F7FFF4
:100D20000420ADF808000020ADF80A000120ADF85D
:100D30000C000020ADF80E000320ADF8100002A951
:100D40004FF0804001F09CFF60214FF0804002F0A6
:100D50004FF80421080702F093FA8021C80502F039
:100D600098FA01220521880702F023F80521880757
:100D700002F0DEFA0121880702F000F809B030BD68
:100D800010B50421080702F0C2FAA8B14FF0804064
:100D900002F09EFA4D4908804FF0804002F09BFA25
:100DA000B0F5167F05DD4FF0804002F094FA484917
:100DB00008800020474908700521880702F0B8FA2A
:100DC00010BD30B589B005460C460121082001F060
:100DD0004AFB0121042001F039FB0220ADF8040098
:100DE00048208DF8070003208DF8060001A93A4835
:100DF00001F056F8ADF81C50ADF818400020ADF8E1
:100E00001E00ADF81A0006A9344801F05BFC322040
:100E10008DF8140001208DF815008DF816008DF85E
:100E2000170005A800F073FF0420ADF808000020AB
:100E3000ADF80A000120ADF80C000020ADF80E005E
:100E40000320ADF8100002A9244801F019FF602129
:100E5000224801F0CDFF0421204802F011FA802140
:100E60001E4802F016FA012205211C4801F0A1FFDC
:100E700005211A4802F05CFA0121184801F07EFFB2
:100E800009B030BD10B50421144802F040FA90B109
:100E9000124802F01DFA12490880104802F01BFAAD
:100EA000B0F5167F04DD0D4802F015FA0D490880F3
:100EB00000200D4908700521084802F039FA10BDDC
:100EC0000002300000031800000C01401000002058
:100ED0000E0000201200002000080140000C00401D
:100EE00016000020140000201800002008B5012181
:100EF000080201F0ABFA3020ADF8000010208DF8A8
:100F0000030003208DF802006946754800F0C8FF11
:100F100008BD002119E010F0800F03D00122714BB1
:100F20001A6002E000226F4B1A604FF001026E4B14
:100F30001A604FF000026D4BC3F894214FEA4062F3
:100F40004FEA126001F10102D1B20829E3DB7047D8
:100F50002DE9F04180460C46B8F1000F01D1F8258B
:100F600000E0FA2504F0F006F02000EA0417284615
:100F7000FFF7CFFF052000F04CFA3046FFF7C9FF1E
:100F8000012000F046FA3846FFF7C3FF012000F0C9
:100F900040FABDE8F08110B530210020FFF7D8FFFE
:100FA0000C210020FFF7D4FF01210020FFF7D0FF24
:100FB0000A2000F02EFA80210020FFF7C9FF00244C
:100FC00006E04B48015D0120FFF7C2FF601CC4B280
:100FD000102CF6DB90210020FFF7BAFF002406E07A
:100FE0004448015D0120FFF7B3FF601CC4B2102C20
:100FF000F6DB88210020FFF7ABFF002406E03E4827
:10100000015D0120FFF7A4FF601CC4B2102CF6DBC9
:1010100098210020FFF79CFF002406E03748015D7F
:101020000120FFF795FF601CC4B2102CF6DB10BD49
:1010300010B533480088334991FBF0F0324908601D
:101040002F4800880A2190FBF1F201FB120030309A
:101050002949C8712A4800880A2190FBF1F090FBC9
:10106000F1F201FB120030302349887124480088D6
:10107000642190FBF1F00A2190FBF1F201FB1200D8
:1010800030301D4948711E4800884FF47A7190FB3A
:10109000F1F00A2190FBF1F201FB12003030164909
:1010A000087188210020FFF753FF002406E0124852
:1010B000015D0120FFF74CFF601CC4B2102CF6DB71
:1010C00098210020FFF744FF002406E00B48015D53
:1010D0000120FFF73DFF601CC4B2102CF6DB10BDF1
:1010E0000020014090012442940124420000244247
:1010F0004C0000205C0000206C0000207C000020E0
:101100000800002040420F002800002008B50121FF
:10111000402001F09BF94FF40040ADF80000102092
:101120008DF8030003208DF802006946044800F0A2
:10113000B7FE4FF40051034800F05DFF08BD00000A
:10114000001801400010014000B585B001210420C5
:1011500001F07CF90121480701F085F91020ADF874
:10116000100000208DF8130003208DF8120004A950
:10117000214800F095FE10211F4800F03CFF0020A0
:10118000009001900290022003906946002002F036
:1011900026FB0121002002F03FFB0021084602F05F
:1011A0009CFB05B000BD2DE9F0470446204604F045
:1011B0000FFB81461149484604F0C0F981464FF0C3
:1011C0008B41484604F04CFB824604F01DF907466B
:1011D0004FF066320A4B03F093FD054603F0B6FC70
:1011E0008146484604F0BCFA85B22946002002F048
:1011F00074FBBDE8F08700000008014000007A445D
:1012000066660A400EB500F09FF80121084601F01D
:101210001DF90221042000F057FF04200190002056
:101220008DF808000C208DF8090001208DF80A00C7
:1012300001A802F09DFB0321042000F045FF0820D7
:10124000019001A802F094FB08208DF80000002016
:101250008DF8010001208DF802008DF8030068462A
:1012600000F055FD09208DF8000000208DF80100E8
:1012700001208DF802008DF80300684600F047FD5C
:101280000EBD10B50A2000F0C4F80821244800F073
:1012900098FE01281CD10020224908604FF4FA7101
:1012A000214800F0CDFA4FF4FA71204800F0C8FA56
:1012B0004FF4FA711E4800F0C3FA4FF4FA711D485A
:1012C00000F0BEFA1CA002F0D5FB01201D49086009
:1012D000042002F0C4FB10BD10B50A2000F099F8FC
:1012E00004210F4800F06DFE012815D10D4908605A
:1012F0004FF448710C4800F0A3FA4FF448710B48C2
:1013000000F09EFA4FF44871094800F099FA4FF442
:101310004871084800F094FA082002F0A0FB10BDC4
:1013200000180140BC012342CC000020E80000204E
:101330000401002020010020626C7565746F6F74D9
:10134000680D0A002300002008B50121402001F0AB
:101350007DF80C20ADF8000048208DF803006946A8
:101360001D4800F09DFD08BD10B5044614B10120D4
:101370001A49087019480078E8B10421164800F0AD
:1013800020FE20B10821144800F01BFE98B90A2065
:1013900000F03FF800201149087004210E4800F0C9
:1013A00010FE08B9012010BD08210B4800F009FE0D
:1013B00078B90220F7E70421074800F002FE01286F
:1013C00007D10821044800F0FCFD012801D10349A0
:1013D00008700020E7E70000001801408C000020A2
:1013E00010B504466FF0040000F0DCFCE11704EBDC
:1013F0005171C910224A11701046007800EB40016B
:10140000C1EBC0104FF6FF7101EAC0001D49088012
:1014100010BD01461B4A12884A434FF0E0235A612F
:1014200000229A6101221A6100BF4FF0E022106988
:1014300010F0010F02D010F4803FF6D000224FF0E0
:10144000E0231A619A61704701460D4A12784A43B7
:101450004FF0E0235A6100229A6101221A6100BF15
:101460004FF0E022106910F0010F02D010F4803F1D
:10147000F6D000224FF0E0231A619A617047000015
:101480008E0000209000002010B54FF4A06000F006
:1014900039FC10BD014600BF704770B504460D46CB
:1014A00000BF40214B4802F0F1F80028F9D0E1B22A
:1014B000484802F07DF8204670BD10B586B004465D
:1014C000012144F2040000F0C1FF424801F034FF62
:1014D0004FF40070ADF8140003208DF816001820AA
:1014E0008DF8170005A93C4800F0DAFC4FF4806045
:1014F000ADF8140004208DF8170005A9364800F057
:10150000CFFC01940020ADF80800ADF80A00ADF85A
:101510000C00ADF810000C20ADF80E0001A92D480C
:1015200001F04DFF25208DF8000003208DF801000B
:101530008DF8020001208DF80300684600F0E7FBFB
:10154000012240F22551234801F0D1FF0121214819
:1015500001F0C1FF06B010BD10B540F225511D4885
:1015600002F0AAF810B31B4802F026F8C4B21B48D8
:10157000008810F4004F2BD11848008810F4804FD9
:101580000CD04B2C03D000201449088020E01348D5
:10159000008840F400401149088019E04F2C06D122
:1015A0000E48008840F480400C49088010E00B4849
:1015B0000088C0F30D000A490C5408480088401CFC
:1015C0000649088008460088C72801DD00200880F9
:1015D00010BD0000003801400008014094000020C8
:1015E0003C0100207FB505460C460121102000F08B
:1015F0003AFFADF80850ADF804400020ADF80A00FD
:10160000ADF8060001A9F84801F05CF80122114686
:10161000F54801F0CEFB36208DF8000001208DF852
:1016200001008DF802008DF80300684600F06FFBA2
:101630007FBD2DE9FC5F04460D462068461BA0696E
:1016400004F0AEF88346216904F00AF98146606926
:1016500004F0A6F80090E16804F002F983463046F1
:1016600004F09EF80090A16804F0FAF85946019041
:1016700004F0F4F98246494603F0F2FE804604F095
:1016800053F807466069A06166613846BDE8FC9F73
:101690002DE9F0410121D44801F039FE00287DD028
:1016A000D2480088D24991FBF0F0D2490860D24874
:1016B0000088CF4991FBF0F0D0490860D0480088FD
:1016C000CB4991FBF0F0CF490860CF480088C8496A
:1016D00091FBF0F0CD49086000BFC648008881B298
:1016E000CB48FFF7A6FFCA4949680844C849486083
:1016F000486803F08AFC0646C64AC74B03F09CFCC8
:10170000044603F055FCC54908800020B94908602B
:10171000B649088000BFB948008881B2C048FFF7C9
:1017200088FFBF4949680844BD494860486803F0DC
:101730006CFC0646B74AB84B03F07EFC044603F047
:1017400037FCB84908800020AC490860AA490880E5
:1017500000BFAC48008881B2B348FFF76AFFB249C6
:1017600049680844B0494860486803F04EFC0646A2
:10177000A84AA94B03F060FC044603F019FCAB49EE
:10178000088000209F4908609D4908809F480068A4
:10179000D72148436421B0FBF1F000E01EE01FFABE
:1017A00080F89A48008881B2A148FFF742FFA0491B
:1017B000496808449E494860486803F026FC06468C
:1017C000944A954B03F038FC044603F0F1FB994929
:1017D000088000208D4908608B490880954803885F
:1017E000924802888F4801888C480088FFF7B8F833
:1017F00001217D4801F09CFDBDE8F0810020844975
:101800004860486188618860C860086108608449F0
:101810004860486188618860C860086108608249E2
:101820004860486188618860C860086108608049D4
:101830004860486188618860C860086108607047D6
:1018400001607047724B9860D9601A61744B986060
:10185000D9601A61744B9860D9601A61744B9860B2
:10186000D9601A6170472DE9FC5F82460C46154627
:101870001E460021504604F0BFF81DD200206E49DC
:1018800008604FF001006D49C1F88801504603F02F
:10189000BBFD6B4A6B4BCDE9000103F0CDFB074666
:1018A00003F054F98146484603F05AFF87B239469F
:1018B0005748FFF7C5FF28E00021504603F000FF1E
:1018C00004D100215248FFF7BBFF1EE001205A4916
:1018D00008604FF000005949C1F888018AF0004BB8
:1018E000584603F091FD0746554A564B03F0A4FBBA
:1018F000CDE9000103F02AF98146484603F030FFA4
:1019000087B239464248FFF79BFF0021204604F08A
:1019100073F81DD200204C4908604FF00100474980
:10192000C1F89801204603F06FFD454A454BCDE9CB
:10193000000103F081FB074603F008F981464846A1
:1019400003F00EFF87B239463548FFF779FF28E0EC
:101950000021204603F0B4FE04D100213048FFF7F7
:101960006FFF1EE00120384908604FF00000334946
:10197000C1F8980184F0004B584603F045FD074636
:101980002F4A304B03F058FBCDE9000103F0DEF89D
:101990008146484603F0E4FE87B239462048FFF707
:1019A0004FFF0021284604F027F851D20020274994
:1019B00008604FF001002149C1F88C01284603F06E
:1019C00023FD1F4A1F4BCDE9000103F035FB0746FD
:1019D00003F0BCF88146484603F0C2FE87B23946A0
:1019E0001148FFF72DFF5CE00010004008000020C8
:1019F00040420F0028000020020000202C000020A0
:101A00000E000020300000201400002034000020D0
:101A1000CC000020B537F8C264AAB03F1A000020FD
:101A2000E80000201C000020040100201E0000200F
:101A300020010020200000208081234200802342DA
:101A40001F85EB51B88E5E409081234284812342F2
:101A50000021284603F034FE04D100214B48FFF753
:101A6000EFFE1EE001204A4908604FF0000049499E
:101A7000C1F88C0185F0004B584603F0C5FC0746C1
:101A8000454A464B03F0D8FACDE9000103F05EF871
:101A90008146484603F064FE87B239463B48FFF76B
:101AA000CFFE0021304603F0A7FF1DD200203C49A5
:101AB00008604FF001003749C1F89C01304603F03F
:101AC000A3FC354A354BCDE9000103F0B5FA0746D2
:101AD00003F03CF88146484603F042FE87B239469F
:101AE0003048FFF7ADFE28E00021304603F0E8FD66
:101AF00004D100212B48FFF7A3FE1EE00120284956
:101B000008604FF000002349C1F89C0186F0004BAB
:101B1000584603F079FC07461F4A204B03F08CFA25
:101B2000CDE9000103F012F88146484603F018FEA3
:101B300087B239461B48FFF783FEBDE8FC9F00B51E
:101B400000211948FFF77CFE0020174948604861D2
:101B5000886100211548FFF773FE00201349486093
:101B60004861886100210948FFF76AFE00200749A3
:101B700048604861886100210A48FFF761FE002043
:101B8000084948604861886100BD000004010020E8
:101B900084812342008023421F85EB51B88E5E4032
:101BA0009481234220010020CC000020E800002086
:101BB0002DE9F04F87B00446894692469B46504631
:101BC00003F022FC074600223C4B03F035FACDE936
:101BD0000001A4EB090003F018FA0546DDE9002333
:101BE00003F028FB0022364BCDE9020103F088F810
:101BF000CDE9040102F0AAFFCBF80000504603F043
:101C000003FC00222D4BCDE9000103F015FACDE9CC
:101C1000040104EB090003F0F8F9CDE90201DDE964
:101C2000042302F0C5FF05460022254B03F068F8A7
:101C3000074602F08BFF10990860504603F0E4FB62
:101C4000054600221D4B03F0F7F9CDE9020104EB34
:101C5000090003F0DAF9CDE90001DDE9022303F020
:101C6000E9FA07460022164B03F04AF8CDE90401D1
:101C700002F06CFF11990860504603F0C5FB00228A
:101C80000E4BCDE9000103F0D7F9CDE90201A4EB39
:101C9000090003F0BAF90746DDE9022302F088FFE4
:101CA00005460022064B03F02BF8CDE9040102F0B3
:101CB0004DFF1299086007B0BDE8F08F00406F40FB
:101CC00000003E400948804709480047FEE7FEE71C
:101CD000FEE7FEE7FEE7FEE7FEE7FEE7FEE7FEE7DC
:101CE00004480549054A064B70470000CD06000828
:101CF0003101000868020020680800206804002004
:101D00006804002031490143314A1160704770B5C1
:101D1000002100230F22C4780CB32D4C246804F456
:101D2000E064C4F5E064210AC1F10403CA404478C8
:101D300004FA03F18478144021430901254C067804
:101D4000A155047804F01F050124AC4005786D11FD
:101D50004FF0E02606EB8505C5F8004109E0047860
:101D600004F01F050124AC401B4D0678761145F8A0
:101D7000264070BD194A0A400243154B1B1F1A60CA
:101D8000704739B1124A121D12680243104B1B1DD5
:101D90001A6006E00E4A121D126882430C4B1B1D8E
:101DA0001A607047042808D14FF0E021096941F01A
:101DB00004014FF0E022116107E04FF0E0210969D2
:101DC00021F004014FF0E022116170470000FA0594
:101DD0000CED00E000E400E080E100E080FFFF1F88
:101DE00010B50446CA48844208D10121042000F0FD
:101DF00047FB0021042000F043FB46E0C548844235
:101E000008D10121082000F03BFB0021082000F050
:101E100037FB3AE0C048844208D10121102000F08D
:101E20002FFB0021102000F02BFB2EE0BB4884424A
:101E300008D10121202000F023FB0021202000F008
:101E40001FFB22E0B648844208D10121402000F067
:101E500017FB0021402000F013FB16E0B14884423C
:101E600008D10121802000F00BFB0021802000F030
:101E700007FB0AE0AC48844207D10121801500F03D
:101E8000FFFA0021A01500F0FBFA10BD10B50121EA
:101E9000084600F0F5FA0021012000F0F1FA10BD2B
:101EA0002DE9F041024600250026002000230024F1
:101EB000002791F803C00CF00F0591F803C01CF047
:101EC000100F03D091F802C04CEA050591F800C04C
:101ED000BCF1000F31D0146800202BE04FF0010C52
:101EE0000CFA00F3B1F800C00CEA03069E4220D1C0
:101EF00083004FF00F0C0CFA03F7BC4305FA03FC08
:101F00004CEA040491F803C0BCF1280F06D14FF04D
:101F1000010C0CFA00FCC2F814C00AE091F803C0EE
:101F2000BCF1480F05D14FF0010C0CFA00FCC2F8CF
:101F300010C0401C0828D1D31460B1F800C0BCF117
:101F4000FF0F34DD546800202EE000F1080C4FF044
:101F5000010808FA0CF3B1F800C00CEA03069E422F
:101F600021D183004FF00F0C0CFA03F7BC4305FAA4
:101F700003FC4CEA040491F803C0BCF1280F05D11E
:101F800000F1080C08FA0CF8C2F8148091F803C0AC
:101F9000BCF1480F07D100F1080C4FF0010808FA16
:101FA0000CF8C2F81080401C0828CED35460BDE85D
:101FB000F0814FF6FF710180022181700421C17010
:101FC00070470246002093680B4201D0012000E0D8
:101FD000002070470146886880B2704702460020A2
:101FE000D3680B4201D0012000E000207047014679
:101FF000C86880B2704701617047416170470AB19B
:10200000016100E041617047C16070474FF4803268
:102010000A438261816182618269826970470246F6
:102020000020424B18684FF68073184040EA0210B7
:1020300008433E4B186070473D49C8617047F0B592
:102040000A46002300240021002500F00046B6F1D6
:10205000004F02D1354EF16901E0344E7168C0F392
:10206000034583B200F44016B6F5401F08D121F0B5
:1020700070612E4E766826F070662C4F7E6012E0FE
:1020800000F48016B6F5801F06D1032606FA05F483
:10209000A14341F0706106E0460D360103FA06F6F1
:1020A000B14341F0706122B1460D360103FA06F6E4
:1020B000314300F00046B6F1004F02D11B4EF161F2
:1020C00001E01A4E7160F0BD30B500228B071C0F85
:1020D0000F2303FA04F2154B08338C1053F8243005
:1020E0009343124C08348D1044F8253023468C104D
:1020F00053F824308C07240F00FA04F423430B4CCC
:1021000008348D1044F8253030BD0A490860704706
:1021100000080140000C0140001001400014014083
:1021200000180140001C0140002001400000014057
:1021300000002042DC0020420E49086070470D4933
:10214000486070470B49886070474AF6AA200949E1
:10215000086070474CF6CC4006490860704701465D
:102160000020044AD2680A4201D0012000E0002089
:102170007047000000300040DD48006840F001007A
:10218000DB49086008464068DA490840D849486099
:1021900008460068D8490840D549086008460068E4
:1021A00020F4802008600846406820F4FE00486063
:1021B0004FF41F0088607047CD49096821F48031D1
:1021C000CB4A11601146096821F480211160B0F5F5
:1021D000803F03D0B0F5802F0ED106E0C4490968D6
:1021E00041F48031C24A116007E0C149096841F4F5
:1021F000A021BF4A116000E000BF00BF704710B5CA
:1022000001460022002300204A11012A02D1B84CC5
:10221000236806E0022A02D1B54C236A01E0B44CDF
:10222000636A01F01F02012494401C4201D0012086
:1022300000E0002010BD38B50020009000240025EB
:1022400000BF3120FFF7DBFF05460098401C0090DF
:102250000098B0F5A06F01D0002DF2D03120FFF72B
:10226000CEFF08B1012400E00024204638BD01461D
:1022700000209F4A106820F0F80040EAC10010607A
:1022800070479E490860704702460020984B586886
:1022900020F47C1042EA01031843954B58607047C4
:1022A00096490866704701460020914A506820F020
:1022B00003000843506070478D48406800F00C00F0
:1022C0007047014600208A4A506820F0F000084319
:1022D0005060704701460020854A506820F4E06055
:1022E00008435060704701460020814A506820F43E
:1022F000605040EAC1005060704729B17C4A527A70
:1023000002437B4B5A7204E0794A527A8243784BFB
:102310005A7270477A490860704701460020744A33
:10232000506820F440400843506070470021754ACF
:1023300011706F4A82F82010012802D0042808D1B9
:1023400003E001216F4A117004E005216D4A11700C
:1023500000E000BF00BF70476B49086070476449E8
:10236000096A0143624A116270476749443908604B
:10237000704730B500210022002400235C4D6D68B9
:1023800005F00C0121B1042905D0082923D105E06D
:102390005E4D056022E05D4D05601FE0544D6D68A7
:1023A00005F47012524D6D6805F48034022505EB7A
:1023B00092421CB9564D554305600BE04C4D6D687B
:1023C00015F4003F03D0524D5543056002E04F4DD8
:1023D0005543056002E04D4D056000BF00BF444D10
:1023E0006D6805F0F00109094A4D6B5C0568DD4038
:1023F00045603F4D6D6805F4E061090A454D6B5C31
:102400004568DD4085603A4D6D6805F46051C90A44
:10241000404D6B5C4568DD40C560354D6D6805F429
:102420004041890B3C4D6B5CC568B5FBF3F505611C
:1024300030BD29B12E4A526902432D4B5A6104E046
:102440002B4A526982432A4B5A61704729B1284A64
:1024500092690243264B9A6104E0254A92698243BD
:10246000234B9A61704729B1214AD2690243204B1C
:10247000DA6104E01E4AD26982431D4BDA6170477B
:1024800029B11B4AD2680243194BDA6004E0184AAA
:10249000D2688243164BDA60704729B1144A126938
:1024A0000243134B1A6104E0114A12698243104B34
:1024B0001A61704714494039086070470F49C86471
:1024C00070470B49C87170470948406A40F08070F6
:1024D00007494862704701460020054A92680A424F
:1024E00001D0012000E00020704701498872704748
:1024F000001002400000FFF8FFFFF6FE000042421D
:10250000D8004242201002408004424200127A0069
:1025100000093D00B8000020C800002010B50446A6
:10252000FE48844208D10121C014FFF7A9FF002111
:10253000E014FFF7A5FFC4E0B4F1804F08D10121FA
:102540000846FFF7AAFF00210120FFF7A6FFB8E029
:10255000F348844208D101210220FFF79EFF0021A9
:102560000220FFF79AFFACE0EE48844208D1012137
:102570000420FFF792FF00210420FFF78EFFA0E068
:10258000E948844208D101210820FFF786FF002195
:102590000820FFF782FF94E0E448844208D101213B
:1025A0001020FFF77AFF00211020FFF776FF88E068
:1025B000DF48844208D101212020FFF76EFF00216F
:1025C0002020FFF76AFF7CE0DA48844208D101212D
:1025D0004014FFF755FF00216014FFF751FF70E032
:1025E000D548844209D10121C804FFF749FF0021E1
:1025F0004FF40020FFF744FF63E0D048844209D144
:1026000001210805FFF73CFF00214FF48010FFF780
:1026100037FF56E0CA48844209D101214805FFF737
:102620002FFF00214FF40010FFF72AFF49E0C548B3
:10263000844208D101214020FFF72FFF00214020D4
:10264000FFF72BFF3DE0C048844208D101218020E4
:10265000FFF723FF00218020FFF71FFF31E0BB4879
:10266000844208D101218015FFF717FF0021A01532
:10267000FFF713FF25E0B648844209D10121080481
:10268000FFF7FEFE00214FF48030FFF7F9FE18E05F
:10269000B048844209D101214804FFF7F1FE00212E
:1026A0004FF40030FFF7ECFE0BE0AB48844208D15A
:1026B00001218804FFF7E4FE00214FF48020FFF79A
:1026C000DFFE10BD00220288944B98420ED0994B39
:1026D00098420BD0B0F1804F08D0914B984205D072
:1026E000904B984202D0904B984204D14FF68F7392
:1026F0001A404B881A438D4B984207D08C4B984216
:1027000004D04FF6FF431A40CB881A4302808B88CF
:1027100083850B880385814B98420BD0854B98426B
:1027200008D08B4B984205D08A4B984202D08A4BF6
:10273000984201D10B7A038601238382704770B5DA
:10274000002400220023058C4FF6FE7635400584D8
:10275000028C8388048B4FF68F752C40B51E2C405D
:102760000D882C43751E2A400D892A434D882A4323
:102770006A4DA8420BD06F4DA84208D0744DA842B4
:1027800005D0744DA84202D0734DA84213D14FF624
:10279000F7752A404D892A434FF6FB752A408D88EC
:1027A0002A434FF6FF652B404FF6FF552B408D898E
:1027B0002B43CD892B4383800483CD888586028477
:1027C00070BD70B5002400220023058C4FF6EF7613
:1027D00035400584028C8388048B48F6FF752C40B5
:1027E0004FF6FF452C400D884FF6FF7606EA05258B
:1027F0002C434FF6DF752A400D8906EA05152A435A
:102800004D8806EA05152A43444DA84202D0494D99
:10281000A8421DD14FF67F752A404D894FF6FF76AD
:1028200006EA05152A434FF6BF752A408D8806EA49
:1028300005152A434FF6FF352B404FF2FF752B400D
:102840008D8906EA85052B43CD8906EA85052B434C
:1028500083800483CD880587028470BD70B5002411
:1028600000220023058C4FF6FF6635400584028C5C
:102870008388848B4FF68F752C404FF6FC752C4067
:102880000D882C434FF6FF552A400D894FF6FF76F1
:1028900006EA05252A434D8806EA05252A431F4DE9
:1028A000A84202D0234DA8421DD14FF2FF752A4005
:1028B0004D894FF6FF7606EA05252A434FF6FF3588
:1028C0002A408D8806EA05252A434EF6FF752B40DF
:1028D0004DF6FF752B408D8906EA05152B43CD89F2
:1028E00006EA05152B4383808483CD88858702847F
:1028F00070BD70B5002200230024058C4EF6FF76D3
:1029000035400584038C8488828B48F6FF752A4005
:102910004FF6FF452A400D8820E00000002C0140C2
:102920000004004000080040000C0040001000407F
:102930000014004000340140004C014000500140B0
:102940000054014000180040001C004000200040DE
:102950000040014000440140004801404FF6FF762E
:1029600006EA05252A434DF6FF752B400D8906EA38
:1029700005352B434D8806EA05352B43FA4DA84211
:1029800002D0FA4DA84208D14BF6FF752C408D8934
:102990004FF6FF7606EA85152C4384808283CD8826
:1029A000A0F84050038470BD828B4FF2FF331A4071
:1029B0008283828B4FF6FF7303EA01231A438283DB
:1029C0007047F0B50C461546002200210026078C02
:1029D0004EF6FF7C07EA0C070784828B018C4FF6CA
:1029E000FF7707EA043640F6FF473A404FF6FF7795
:1029F00007EA05273A434FF6FF7707EA03373A43DA
:102A0000D94FB8420ED0D94FB8420BD0B0F1804F59
:102A100008D0D74FB84205D0D64FB84202D0D64FD3
:102A2000B84206D14DF6FF77394046F48057394316
:102A300005E047F6FF57394044F480573943828315
:102A40000184F0BD828B4FF6F3731A408283828B30
:102A50000A4382837047F0B50C46154600220021D8
:102A60000026078C4FF6FF6C07EA0C070784828B61
:102A7000018C4FF6FF7707EA04264FF60C773A40B1
:102A80004FF6FF7707EA03172F433A43B64FB84292
:102A90000ED0B64FB8420BD0B0F1804F08D0B44F33
:102AA000B84205D0B34FB84202D0B34FB84206D1B6
:102AB0004FF6FF57394046F48077394305E04FF22F
:102AC000FF57394044F48077394382830184F0BD55
:102AD000028B4FF2FF331A400283028B4FF6FF73D3
:102AE00003EA01231A4302837047F0B50C461546EA
:102AF000002200210026078C4FF6EF7C07EA0C0726
:102B00000784028B018C4FF6FF7707EA041640F624
:102B1000FF473A404FF6FF7707EA03373A434FF64D
:102B2000FF7707EA05273A438F4FB8420ED08F4F01
:102B3000B8420BD0B0F1804F08D08D4FB84205D0CD
:102B40008C4FB84202D08C4FB84206D14FF6DF7797
:102B5000394046F01007394305E04FF65F773940BA
:102B600044F01007394302830184F0BD028B4FF615
:102B7000F3731A400283028B0A4302837047F0B555
:102B80000C46154600220021068C4FF6FE773E408B
:102B90000684028B018C4FF60C7632407E1C06EACE
:102BA00003162E433243704EB0420ED06F4EB042E9
:102BB0000BD0B0F1804F08D06D4EB04205D06D4EB5
:102BC000B04202D06C4EB04206D14FF6FD76314095
:102BD00044F00106314305E04FF6F576314044F00C
:102BE0000106314302830184F0BD70B505460C46F1
:102BF0005D4885420ED05D4885420BD0B5F1804FCF
:102C000008D05B48854205D05A48854202D05A48D0
:102C1000854200D100E000BF208850B92389A288F6
:102C200061882846FFF7ABFFE1882846FFF79EFF43
:102C300025E0208804280AD12389A28861882846B3
:102C4000FFF753FFE1882846FFF742FF17E020888F
:102C500008280AD12389A28861882846FFF7FBFE4D
:102C6000E1882846FFF7EEFE09E02389A288618803
:102C70002846FFF7A6FEE1882846FFF795FE70BDBF
:102C80002DE9F04105460C4600260127608808B969
:102C9000022600E00026A088012801D1022700E0DA
:102CA00001272088A0B92389A28861882846FFF7D8
:102CB00066FFE1882846FFF759FF23893A463146E7
:102CC0002846FFF712FFE1882846FFF701FF13E0CF
:102CD0002389A28861882846FFF707FFE1882846F4
:102CE000FFF7F6FE23893A4631462846FFF747FFAD
:102CF000E1882846FFF73AFFBDE8F0810A884B8853
:102D00001A438B881A43CB881A430B891A434B8981
:102D10001A438B891A43A0F8442070474FF6FF717D
:102D2000818000210180C1804180017270470021B3
:102D3000018041808180C180018141818181C18187
:102D40007047002101804180012181800021C180E4
:102D5000018170470021018041808180C180018113
:102D60004181818170470000002C01400034014006
:102D70000004004000080040000C004021B102881F
:102D800042F00102028004E002884FF6FE731A400E
:102D90000280704731B1B0F8442042F40042A0F8FC
:102DA000442005E0B0F84420C2F30E02A0F844200D
:102DB00070471AB183890B43838102E083898B4377
:102DC000838170478182704741EA0203A0F848304E
:102DD00070471AB183890B43838102E083898B4357
:102DE0008381704701894FF6F87211400181704765
:102DF0000A46002101894FF68F7319401143018162
:102E0000704730B504460D4629462046FFF7F0FFCF
:102E1000208940F00700208130BD2DE9F0410446B3
:102E20000D4616461F46602D06D13B46012231460F
:102E30002046FFF75AFE05E03B4601223146204678
:102E4000FFF79DFE29462046FFF7D2FF208940F07C
:102E500007002081BDE8F08130B50C4600210189D2
:102E6000C9B24FF6FF7505EA0325154325432943EB
:102E7000018130BD2DE9F04105460E4617469846C2
:102E8000002443463A4631462846FFF7E5FF2C89A1
:102E90004FF6F870044044F007044FF68F7004407A
:102EA00044F070042C81BDE8F081F0B504460D4675
:102EB00016461F463B46324629462046FFF7CCFFC2
:102EC000208940F480402081F0BD018582827047D6
:102ED0000A46002101884FF68F7319401143018083
:102EE0007047F0B50C4615461E460021002200230F
:102EF0000189028B038C4FF6F877394021434FF656
:102F0000FC473A4040F201173A434FF6DD773B4029
:102F10004FF6FF7707EA06172F433B4301810283F1
:102F20000384F0BD0A460021018B4FF68F731940D0
:102F30001143018370470A460021018B48F6FF7355
:102F400019404FF6FF7303EA0223194301837047C8
:102F50000A460021818B4FF68F73194011438183FC
:102F600070470A460021818B48F6FF7319404FF6DF
:102F7000FF7303EA022319438183704721B102885A
:102F800042F08002028004E002884FF67F731A400C
:102F90000280704721B1828842F00402828004E0FE
:102FA00082884FF6FB731A408280704721B1828875
:102FB00042F00802828004E082884FF6F7731A40DC
:102FC0008280704721B1828842F00102828004E051
:102FD00082884FF6FE731A40828070470A460021AD
:102FE000018B4FF6F77319401143018370470A466E
:102FF0000021018B4FF2FF7319404FF6FF7303EA74
:1030000002231943018370470A460021818B4FF642
:10301000F77319401143818370470A460021818B61
:103020004FF2FF7319404FF6FF7303EA022319436F
:10303000818370470A460021018B4FF6FB731940CC
:103040001143018370470A460021018B4FF6FF337D
:1030500019404FF6FF7303EA0223194301837047B7
:103060000A460021818B4FF6FB731940114381837F
:1030700070470A460021818B4FF6FF3319404FF607
:10308000FF7303EA02231943818370470A46002134
:10309000018B4FF67F7319401143018370470A4635
:1030A0000021018BC1F30E014FF6FF7303EA0223E7
:1030B0001943018370470A460021818B4FF67F73C5
:1030C00019401143818370470A460021818BC1F367
:1030D0000E014FF6FF7303EA022319438183704701
:1030E0000A460021018C4FF6FD73194011430184FB
:1030F00070470A460021018C4FF6F77319401143BF
:10310000018470470A460021018C4FF6DF73194095
:103110004FF6FF7303EA02131943018470470A460E
:103120000021018C4FF67F7319404FF6FF7303EABD
:1031300002131943018470470A460021018C4FF69F
:10314000FF5319404FF6FF7303EA0223194301842A
:1031500070470A460021018C4FF2FF7319404FF669
:10316000FF7303EA02231943018470470A460021D2
:10317000018C4DF6FF7319404FF6FF7303EA0233DB
:1031800019430184704730B5002301248C40A3B259
:10319000048C9C430484048C02FA01F5ADB22C43E8
:1031A000048430BD30B5002304248C40A3B2048CC9
:1031B0009C430484048C02FA01F5ADB22C430484D0
:1031C00030BD70B503460020002418461830012594
:1031D0008D40ACB21D8CA5431D8409B1082909D1CD
:1031E00000EB6100056825F0700505600568154372
:1031F00005600EE00D1FC5F34E052844056825F453
:10320000E045056005684FF6FF7606EA022635437D
:10321000056070BD21B1028842F00202028004E024
:1032200002884FF6FD731A400280704721B1028870
:1032300042F00402028004E002884FF6FB731A4059
:103240000280704721B1828842F08002828004E0CF
:1032500082884FF67F731A408280704702884FF64B
:10326000F7731A40028002880A43028070478288FE
:103270004FF68F731A40828082880A43828070479B
:1032800002894FF6F8731A40028102890A430281CB
:10329000704702894FF67F731A40028102890A4300
:1032A00002817047818470478185704781867047AD
:1032B0000187704781877047A0F8401070470288E7
:1032C0004FF6FF431A40028002880A43028070478B
:1032D0000146888E70470146088F70470146888FE7
:1032E00070470146B1F8400070470146888C70472E
:1032F0000146088D704702460020138A0B4201D018
:10330000012000E000207047CA430282704730B5B8
:103310000246002000230024158A05EA010395894E
:1033200005EA010413B10CB1012000E0002030BD1A
:10333000CA4302827047000010B50446FB4884422D
:1033400009D101218803FFF79BF800214FF4804049
:10335000FFF796F832E0F648844209D1012148048B
:10336000FFF79BF800214FF40030FFF796F825E0B7
:10337000F048844209D101218804FFF78EF800212A
:103380004FF48020FFF789F818E0EB48844209D118
:103390000121C804FFF781F800214FF40020FFF756
:1033A0007CF80BE0E548844208D101210805FFF7CD
:1033B00074F800214FF48010FFF76FF810BD2DE96D
:1033C000F04786B005460E460024A24600BFA1463F
:1033D0000027B08900B100BF2F462C8A4CF6FF7041
:1033E0000440F08804432C82AC894EF6F31004406C
:1033F000B08831890843718908430443AC81AC8AA1
:103400004FF6FF400440B0890443AC8201A8FEF7A8
:10341000B0FFC648874202D1DDF810A001E0DDF818
:103420000CA0A88910F4004F08D00AEBCA0000EBEA
:103430000A1031684900B0FBF1F807E00AEBCA0056
:1034400000EB0A1031688900B0FBF1F86420B8FB8A
:10345000F0F004012009642101FB1089A88910F40F
:10346000004F08D0322000EBC900B0FBF1F000F0B3
:103470000700044308E0322000EB09106421B0FB90
:10348000F1F000F00F0004432C8106B0BDE8F08796
:103490004FF41651016000218180C18001810C210F
:1034A000418100218181704710B502460020108AB9
:1034B0004FF2FF0318400B884C8823438C8823432A
:1034C000CC8823431843108210BD00210180418025
:1034D0008180C180704721B1828942F4005282818B
:1034E00004E082894DF6FF731A4082817047F0B57F
:1034F00003460024002600250020A1F510676A3F3E
:1035000000D100BF1846C1F3421401F01F06012785
:1035100007FA06F5012C01D10C3004E0022C01D190
:10352000103000E014301AB107682F43076002E042
:103530000768AF430760F0BD1AB1838A0B438382EB
:1035400002E0838A8B4383827047028A4FF6F073CE
:103550001A400282028A0A430282704782894FF22D
:10356000FF731A40828182890A438281704721B1A8
:10357000828942F00202828104E082894FF6FD7363
:103580001A4082817047028A4FF6DF731A40028226
:10359000028A0A430282704721B1028A42F48042C1
:1035A000028204E0028A4BF6FF731A4002827047DF
:1035B000C1F308028280704701468888C0F3080082
:1035C0007047818941F0010181817047028BD2B23D
:1035D0000283028B42EA012202837047028B02F4CB
:1035E0007F420283028B0A430283704721B1828AA1
:1035F00042F02002828204E0828A4FF6DF731A4092
:103600008282704721B1828A42F01002828204E0F5
:10361000828A4FF6EF731A408282704721B1828A04
:1036200042F00802828204E0828A4FF6F7731A4061
:103630008282704721B1828942F40042828103E094
:103640008289C2F30E028281704721B1828A42F4DC
:103650000062828204E0828A4FF2FF731A40828203
:103660007047828A4FF6FB731A408282828A0A432D
:103670008282704721B1828A42F00202828204E093
:10368000828A4FF6FD731A408282704702460020FC
:10369000B1F5007F00D100BF13880B4201D001209B
:1036A00000E00020704701F40072B2F5007F00D105
:1036B00000BFCA430280704770B502460024002351
:1036C00000250020A1F510666A3E00D100BFC1F3BD
:1036D000421501F01F03012606FA03F3012D02D162
:1036E0009689334006E0022D02D1168A334001E06C
:1036F000968A33400C12012606FA04F416883440E8
:1037000013B10CB1012000E0002070BD10B5002203
:103710000023A1F510646A3C00D100BF0A12012405
:103720009440A3B2DC43048010BD00000038014087
:103730000044004000480040004C00400050004061
:1037400010B50121C802FEF7A8FE00214FF4006069
:10375000FEF7A3FE10BD0021194A126822F4C071C1
:103760000143174A1160704708B5002100911449C0
:10377000096821F07F01009100F07F01009A114358
:1037800000910F4A0099116008BD01200D490860A1
:10379000704700F07F010A4A121F1160704740F025
:1037A0008001074A121F116070470548001D00681C
:1037B000C0B2704700200249091D08607047000030
:1037C000042C0040A480054210B501214807FEF7F3
:1037D00064FE00214FF00050FEF75FFE10BD30B5D3
:1037E000002200235A4C226840F6FE748440A24313
:1037F000D1E900452C438D682C43CD6844EA05038C
:1038000003FA00F42243524C226030BD00210160D3
:1038100041608160C160704739B14D4A126801232F
:1038200083401A434A4B1A6006E0494A1268012352
:1038300083409A43464B1A60704741B1444A12682C
:103840004FF4805383401A43414B1A6007E0404ACB
:1038500012684FF4805383409A433D4B1A6070477F
:1038600010B551B13A4A121D126804090123A34050
:103870001A43374B1B1D1A6009E0354A121D1268A6
:1038800004090123A3409A43314B1B1D1A6010BD4C
:1038900040B12F49091D096841F003012C4A121D4E
:1038A000116007E02A49091D096821F00301284A2F
:1038B000121D1160704710B53AB1254B1B6801FA13
:1038C00000F42343224C236006E0214B1B6801FADD
:1038D00000F4A3431E4C236010BD08B500220092E3
:1038E0001B4A009200F10802009B1A440092009AC1
:1038F000116008BD08B500220092154A009200F13F
:103900001402009B1A440092009A116008BD30B561
:1039100000240023082802D142EA012401E042EAFF
:1039200001440B4B00F120052B441C6030BD08B551
:10393000014600200090064800902C2000EB9100EA
:10394000009A104400900098006880B208BD000002
:1039500000740040002044490860091D0860091DEA
:103960000860091D086041483F49143108607047EC
:1039700000213D498279002A3AD00A46126803683C
:103980009A430B461A600A1D126803689A430B1D7E
:103990001A60027911440A6803681A430A60324ABD
:1039A0000832126803689A432F4B08331A601A1DB5
:1039B000126803689A432C4B0C331A604279102A20
:1039C0000ED11A1F126803681A43274B08331A6076
:1039D0001A1D126803681A43234B0C331A600DE05A
:1039E0002149427911440A6803681A430A6005E0D4
:1039F000027911440A6803689A430A6070470021FB
:103A0000016001710C2141710021817170471649DB
:103A1000103109680143144A1032116070470146A1
:103A20000020114A143212680A4201D0012000E03D
:103A3000002070470C49143108607047014600208F
:103A40000022094B1B6803EA0102074B14331B6871
:103A50000B4202D00AB1012000E000207047024969
:103A6000143108607047000000040140FFFF0F00A0
:103A7000704700000FB4044910B503AA029800F083
:103A8000E5FA10BC5DF814FB980000202DE9F04128
:103A90000E460446002020622046E168884730B385
:103AA000252805D0D4E901219047206A401CF2E77F
:103AB000E168204600278847050018D0A5F141009D
:103AC000192802D820354FF400673246294620468F
:103AD0002760FCF767FB40B1012804D0F61D26F0F3
:103AE00007060836D8E7361DD6E72846DAE7206A03
:103AF000BDE8F0812DE9F0410646002410687529E3
:103B0000314616A511D0AFF30080002803DAC0F1CA
:103B1000000013A507E031688A0701D511A502E06E
:103B2000490704D510A5012401E0AFF3008000216E
:103B30000A2306F1240707E0B0FBF3F203FB1200AF
:103B4000303078541046491C0028F5D123462A46C7
:103B50003046BDE8F04100F00DB800000000000064
:103B60002D0000002B00000020000000704770476F
:103B7000704770472DE9F0470D4699469246044636
:103B800000F124080168880604D5E06921F01001DD
:103B9000216000E00120A84202DDA0EB050700E063
:103BA0000027A16907EB050202EB0900A1EB000069
:103BB000A0612078C00602D42046AFF30080002622
:103BC00008E0D4E901211AF806009047206A401C59
:103BD000761C20624E45F4DB2078C0060AD52046CC
:103BE000AFF3008006E0D4E9012130209047206A3D
:103BF000401C2062381EA7F10107F4DC07E0D4E97D
:103C0000012118F805009047206A401C2062281EF8
:103C1000A5F10105F3DC2046AFF300802078000613
:103C200002D50220BDE8F0870120FBE770472DE9AF
:103C3000FF4F0C461E464FF0FF378BB0D2E9000114
:103C4000DDF860800A908A46C1F30A5505B93D4601
:103C5000002108464FF00000BAF1000F00F44000C8
:103C600005DA00EB80004FF4400101EA50004FEA12
:103C70009059B9F1010F00DDB9460A9850EA4A009F
:103C80000ED044F61050A5F2FF3545432F14B8F17D
:103C9000000F1ED07542291E1EDDC9F100021CE076
:103CA000B8F1010F4FF0000001D0302103E0F243E2
:103CB00005E02154401CB042FBDB304600220021CD
:103CC00021540B99C1F80880C1E900200FB0BDE86C
:103CD000F08FBD1B6D1CDEE74A4600DA694206A87C
:103CE00000F068FA06AB07CB03AB07C350460A994E
:103CF00000F046FB8DE80700A0F500501F3800904B
:103D00000398002D09DD42F21F014A46084403A929
:103D10000390684600F0A5FD08E0A0F500504A4673
:103D20001F3803A90390684600F0AFFD8DE8070037
:103D30000004000C03D04FF0FF30410800E01046B3
:103D4000B8F1000F03D00022009215461FE0751E47
:103D500006D400F091F902F1300262556D1EF8D5DB
:103D6000B3460122084302D000227F1C04E02078E1
:103D7000302801D100227F1E002A099787D01DE03C
:103D8000112D07DA00F078F9303262556D1C50EAD7
:103D90000102F5D108430FD10021681E05E0235C24
:103DA000625C6354491C2254401E8142F7DBAB46DF
:103DB000A81B401E099001E0009848B1002004F8BB
:103DC0000B000B98099AC0F80880C0E9002B7DE72A
:103DD00011264FF000085AE72DE9F04F88460446B7
:103DE000D21D22F0070191B0D1E90001CDE90A010D
:103DF00000F081FE02460B98C00F01D02D2007E095
:103E00002068810701D52B2002E0202101EAC000B3
:103E1000032A099001D0072A05DB034641462046C4
:103E200000F088F90FE12078800601D5E06900E014
:103E30000620B8F1650F814606D0B8F1660F18D09C
:103E4000B8F1670F72D132E00020B9F1110F009084
:103E500001DB112301E009F101030AAA01A90CA861
:103E6000FFF7E5FEDDE90C70002609F10105834648
:103E700048E001204B4600904FF000470AAA01A9F4
:103E80000CA8FFF7D4FEDDE90DB00C995D460026C5
:103E900018B909F1010001EB0005B9EB050003D4E5
:103EA000C0F1FF3609F10105A5EB09002BE0B9F1DE
:103EB000010F01DA4FF001090020B9F1110F009054
:103EC000484601DD112300E003460AAA01A90CA817
:103ED000FFF7ADFEDDE90C704D46002683462078E5
:103EE00000070AD4AB4500DA5D4601A8012D04DDC8
:103EF000411911F8011C302907D04F4502DA17F19A
:103F0000040F04DA0120824610E06D1EEEE7002F58
:103F100002DCED1B3E4403E0781CA84200DD0546B0
:103F2000A7EB060000F1010A4FF0004720780007D8
:103F300003D4AA4501DB4FF0FF3A0021B7F1004F4F
:103F40000DF143088DF8431023D002202B23002FBE
:103F500001DA7F422D234FF00A0C011EA0F101006F
:103F600000DC4FB197FBFCF10CFB11720F4602F124
:103F7000300208F8012DF0E7A8F101000370218854
:103F8000090501D5452100E06521A0F1010800F8EF
:103F9000011C09980FA9A1EB080707F1070700B159
:103FA000012000EB050101EBEA70A1693844A1EBA7
:103FB0000000A0F10100A0612078C00602D42046D4
:103FC000AFF30080099830B1D4E901219047206A0D
:103FD00000F1010020622078C00620D52046AFF312
:103FE00000801CE0002E04DBB34502DD01A8805DEB
:103FF00000E03020D4E901219047206A761C401C63
:10400000BAF1010A20620AD100F032F8C0680168F2
:10401000405CD4E901219047206A401C2062281EA0
:10402000A5F10105DEDC07E0D4E9012118F8010B58
:104030009047206A401C2062381EA7F10107F3DC7C
:104040002046AFF30080022011B040E6074B70B568
:104050000D467B4400F05BF80446284600F01CF94E
:1040600010B14FF0FF3070BD204670BD45D4FFFF4A
:10407000004870472402002030B5B0F10A024FEA30
:10408000900E71F100034EEA817EB0EB0E0061EB01
:1040900091014FEA101E4EEA017E10EB0E0041EB3B
:1040A00011114FEA102E4EEA016E10EB0E0041EB9B
:1040B00011214FEA104E4EEA014E10EB0E0041EB7B
:1040C0001141401841F100014FEAD00040EA41702F
:1040D0004FEAD10110EB80054FEA810444EA907465
:1040E00044EB01046D1944EB0404521BA3414FF04F
:1040F000000348BF0A3200D530BD401C41F1000129
:1041000030BD000001694A1C02610878704700B5A3
:104110008FB0CDE901310021059105497944CDE900
:10412000031011466846FFF7B1FC0FB000BD000058
:10413000E5FFFFFF2DE9F0411F4604460326016815
:10414000072A01F4006004DB08B116A505E016A5F6
:1041500003E008B115A500E015A521F010002060CE
:10416000A069C01EA0610FB1401EA0612046AFF340
:1041700000804FB1D4E9012138469047206A401CA5
:104180002062C01C206206E0206AFAE7D4E901211F
:1041900015F8010B9047761EF8D22046AFF3008049
:1041A000BDE8F0814E414E006E616E00494E460002
:1041B000696E66002DE9F047814616468AB035489B
:1041C0007844D0E9002380680092CDE9013031487D
:1041D00078440C38D0E90223006903924FF037028B
:1041E000CDE9043041F69B30014491FBF2F0A0F19F
:1041F000800502FB10141B3C02D56442012000E044
:104200000020DFF890A080460027FA44AAF1C60AF1
:104210000DE0E00709D03246684607EB47010AEB9C
:10422000810100F032FB8DE8070064107F1C002C38
:10423000EFD1184F7F44B43F17E0E80713D007EBE6
:1042400004100DF1180A90E80E00AAE80E00C068EC
:10425000F04201D198190890324606A903A800F04F
:1042600014FB03AB07C36D10641C002DE5D132466F
:104270006946B8F1000F03A802D000F0F2FA01E09D
:1042800000F003FBC9E90001C9F808200AB0BDE845
:10429000F0870000041A0000007B00F080007047E7
:1042A00000487047040200207546FFF7F9FFAE464C
:1042B00005006946534620F00700854618B020B532
:1042C000FDF70EFDBDE820404FF000064FF000075F
:1042D0004FF000084FF0000B21F00701AC46ACE8AE
:1042E000C009ACE8C009ACE8C009ACE8C0098D461B
:1042F00070470446AFF300802046FBF770FF0000D4
:104300004FF0013C50F8042B51F8043B9A4221D164
:10431000A2EB0C03934313EACC1317D150F8042BF0
:1043200051F8043B9A4215D1A2EB0C03934313EAD4
:10433000CC130BD150F8042B51F8043B9A4209D10D
:10434000A2EB0C03934313EACC13DBD04FF0000035
:10435000704700BFD01A01BAB1FA81F101F018011B
:1043600022FA01F0CB40C1F12001DBB2C0B2C01A89
:104370002CFA01F3D11A914311EAC311E6D1704727
:104380005FEA400C08BF91F0000F4FEA8C234FEA20
:10439000C12243EA51514FEA1C5018BF00F5F040CA
:1043A0004FEA300018BF41F000415FEA6C5C00F05A
:1043B0002980BCF1FF3F08BF40F080407047130CDC
:1043C00006BF12044FF0100C4FF0000C130E04BF88
:1043D00012020CF1080C130F04BF12010CF1040CB3
:1043E000930F04BF92000CF1020CD30F04BF5200D4
:1043F0000CF1010C11464FF00002A0F11F00A0EBE0
:104400000C00704711F0004F08BF704731F00041B9
:104410003FF4D5AF0B0C06BF09044FF0100C4FF062
:10442000000C0B0E04BF09020CF1080C0B0F04BFAB
:1044300009010CF1040C8B0F04BF89000CF1020C74
:10444000CB0F04BF49000CF1010CCCF12003A0EB11
:104450000C0022FA03F302FA0CF241EA030100F124
:104460000100704720F07F4C80EA030023F07F4773
:10447000ACEB070303F57C5300F0004003F1FF03AE
:104480002DE980494FEA154B09B44FEA144325EA58
:104490000B4E24EA03480FF2042606EB13274908C3
:1044A0003E785FEA320203FB0667C7F5000707FBA9
:1044B00006F64FEA54374FEAD64606F1020607FBE6
:1044C000066CCCF1005C4FEA1C472CEA074C07FB5A
:1044D00006F40CFB06F504EB15464FEA961634BFBE
:1044E00000204FF000404FEAD13706FB07FC4FEAAF
:1044F0001C4C0CFB0BF7D21B03FB0CF761EB070109
:104500000CFB0EF7B0EB074072EB17420CFB08F701
:1045100034BFA2EB0742B2EB074261EB17414FEA0F
:104520000C444FEA910706FB07FC4FEA1C4C0CFBBE
:104530000BF7B0EBC74072EB573203FB0CF734BFFD
:10454000A2EBC742B2EBC74261EB57310CFB0EF74F
:10455000B0EBC70072EB57720CFB08F734BFA2EB4D
:10456000C702B2EBC70261EB5771039F4FEA81614B
:1045700041EA921104EBCC044FEAD1374FEA826250
:1045800006FB07FC42EA90124FEA80604FEA1C4C9F
:104590000CFB0BF7D21B03FB0CF761EB07010CFBC9
:1045A0000EF7B0EB074072EB17420CFB08F734BF75
:1045B000A2EB0742B2EB074261EB17414FEA8C5581
:1045C0004FEA910704EB9C2406FB07FC4FEA1C4CC6
:1045D0000CFB0BF7B0EBC74072EB573203FB0CF749
:1045E00034BFA2EBC742B2EBC74261EB57310CFBC1
:1045F0000EF7B0EBC70072EB57720CFB08F734BF35
:10460000A2EBC702B2EBC70261EB577115EB4C2569
:104610004FEA816141EA92114FEA82624FEAD13753
:1046200042EA901206FB07FC44F100044FEA806066
:104630004FEA1C4C0CFB0BF7D21B03FB0CF761EB96
:1046400007010CFB0EF7B0EB074072EB17420CFBB7
:1046500008F734BFA2EB0742B2EB074261EB174108
:1046600015EB1C154FEA813141EA92414FEA823243
:1046700042EA90424FEA80304FEA0C7644F100045F
:1046800048EA03434EEA0B484FF0000EB2EB080C29
:1046900071EB030724BF624639464EEB0E0E4FF016
:1046A000000B0018524149414BEB0B0BB2EB080CCD
:1046B00071EB03077BF1000B24BF624639464EEBDA
:1046C0000E0E4FF0000B0018524149414BEB0B0B03
:1046D000B2EB080C71EB03077BF1000B24BF6246C1
:1046E00039464EEB0E0E51EA020718BF46F001069E
:1046F00016EB0E7655F1000254F1000103D5BDE82A
:104700008901BDE80088BDE88901BDE80048B61907
:10471000524141EB0101A3F10103704780807F7E8C
:104720007D7C7B7A79787776767574737271717027
:104730006F6E6E6D6C6C6B6A6A69686867666665D9
:104740006464636362616160605F5F5E5E5D5D5C67
:104750005C5B5B5A5A5959585857575656555555D8
:104760005454535352525251515050504F4F4F4E38
:104770004E4D4D4D4C4C4C4B4B4B4A4A4A49494986
:1047800048484847474747464646454545444444C8
:10479000444343434342424242414141002B26D4D9
:1047A000770021D01CB54FEA370703B44FF0100053
:1047B0004FF010014FF000000FBCBDE810400BF1AE
:1047C000010BBBF1010F08BF5FEA170722BF12F10F
:1047D000010211F101014FF0004143F1000300F02B
:1047E000004043EA00007047F9D35708DAE746EA89
:1047F000064613F1400F4FEA16461FDD13F1200F56
:10480000DFBF16430A46002120335B42C8D0C3F104
:10481000200746EA064602FA07F74FEA164646EA36
:104820000706C3F1200722FA03F201FA07F721FA7B
:1048300003F14FF0000342EA0702B1E746EA02063D
:1048400046EA06464FEA164646EA0106BCBF46EA75
:104850000646360C4FF000034FF000024FF0000107
:104860009EE72DE9C048934630B491E8380007C868
:1048700031EA400C48BF34EA430C03D5FFF7F2FDA0
:10488000FFF78CFFF0BCBDE800882DE9C0489346D7
:1048900030B491E8380007C810F0804F08BF13F01B
:1048A000804F03D100F005F8FFF778FFF0BCBDE8BA
:1048B000008820F07F4780EA030023F07F4C07EB5D
:1048C0000C03A3F57C5300F00040A3F1FE0392F02B
:1048D000000F00F0B38095F0000F00F077802DE915
:1048E00001494FEA11404FEA144621EA004800FB13
:1048F00006FC24EA064708FB06F607FB08F800FB5F
:1049000007F718EB06484CEB164C4FEA124B18EB26
:1049100007484FEA15464CEB174022EA0B4E0BFBBB
:1049200006FC25EA06470EFB06F607FB0EFE0BFB10
:1049300007F71EEB064E4CEB164C4FF000061EEB35
:10494000074E4CEB174B18EB0B0840F1000018EB2F
:104950000E0B58EB000840F100008F1A4FF00001D9
:104960003CBFC943661B14BFB5EB040C00213CBF20
:10497000C943F61B4FEA17444EEA8E0E27EA044558
:104980004FEA1C4704FB07622CEA074C05FB07F7BC
:104990000CFB05F604FB0CFC16EB074642EB17423A
:1049A00016EB0C4642EB1C421BEB060658EB0202D0
:1049B000414146EA9E0601D5BDE80189B61952413A
:1049C00041EB0101A3F10103BDE801894FEA144560
:1049D0004FEA114724EA054621EA074C05FB07F494
:1049E00006FB07F70CFB06F105FB0CFC11EB07417E
:1049F00044EB17444FEA124711EB0C4144EB1C44C3
:104A000022EA074C05FB07F206FB07F70CFB06F64C
:104A100005FB0CFC16EB074642EB174216EB0C4667
:104A200042EB1C456A1854F1000148BF7047B619A3
:104A3000524141EB0101A3F10103704795F0000FD2
:104A400037D04FEA11424FEA144721EA024624EADE
:104A5000074C02FB07F106FB07F70CFB06F402FB11
:104A60000CFC14EB074441EB17414FEA154714EBDC
:104A70000C4441EB1C4125EA074C02FB07F506FB01
:104A800007F70CFB06F602FB0CFC16EB074645EBA2
:104A9000174516EB0C4645EB1C42121951F100016B
:104AA00048BF7047B619524141EB0101A3F1010320
:104AB00070474FEA14454FEA114724EA054621EAB8
:104AC000074C05FB07F106FB07F70CFB06F24FF05E
:104AD000000605FB0CFC12EB074241EB174112EB01
:104AE0000C4251EB1C4148BF7047921841EB010149
:104AF000A3F101037047490050EAC12018BF042008
:104B00004A0D18BF40F0010040F2FF72B2EB515F56
:104B100008BF40F00200012808BF052070470000D0
:104B200010B500290AD00878002807D00548784435
:104B3000FFF7E6FB002801D0002010BD02487844B2
:104B400010BD0000D2100000CA10000021F0004289
:104B5000A2F16052B2F5801F01F0004328BFD2F1EC
:104B60007F6C0BD95FEA001C43EAC20242EB507033
:104B700018BF704728BF20F001007047B2F5801FB2
:104B8000BCBF184670474FEA410C1CF5001F02D20B
:104B9000084600F02CBF70B500F0F8FA000000895C
:104BA000FFF7F6BF4FF00040A0F58000704700000F
:104BB00010B591EA030F48BF83F0004300F1428330
:104BC000841A71EB030C05D2121943EB0C03001B82
:104BD00061EB0C01DFF824E14FEA1154A4EB135C04
:104BE0001EEA430F18BF9EEA445F73D023EA0E0308
:104BF000DCF1200E21EA045143F4801332D322FA6F
:104C00000CFE10EB0E0023FA0CFE41EB0E01CCF172
:104C1000200E03FA0EFE10EB0E0051F10001B1F56B
:104C2000801FCCF1200E32D201EB045112FA0EF2A9
:104C3000BDE8104058BF7047401C38BF5FEA4202D1
:104C400018BF7047002814BF20F0010041F1000197
:104C50004FEA410313F5001F38BF7047A1F1C0416F
:104C600000F0E2BA012A43EB0302ACF1200CDCF1C4
:104C70001F0E32BF4FF0000E23FA0CF310EB0300AF
:104C800041EB0451B4EB115FD0D0A1EB045101F51D
:104C9000801149085FEA300001EB04510ED350F156
:104CA000000038BF12FA0EFE08D1BDE81040C9E777
:104CB000401C38BF5FEA4202CAD1C3E7BDE81040DA
:104CC0004FEA410313F5001F38BF7047A1F1C041FF
:104CD00000F0AABA9EEA445F08D011EA5E0FBDE870
:104CE000104004BF01F0004100207047BDE81040B3
:104CF00070B500F04BFA00BF64FBBE3E0000E0FF61
:104D00002DE9C04130B4DFF8A0C23CEA111418BF4D
:104D10003CEA131400F0EC8081EA03051CEA11144C
:104D200044EAD57418BF1CEA131500F0C780A4EB41
:104D300005044FF0004545EAC12145EAC32341EA95
:104D4000505143EA525304F17F74994204F5003400
:104D50004FEAC0204FEAC22208BF904200F09C8078
:104D60004FEA13650FF24016765D4FEA134506FBD6
:104D700005F7C7F1807706FB07F74FEAD737A7FBA0
:104D800003687642C8F58038A7FB06CE38BFA8F185
:104D9000010807FB08E64FF0000EA6FB028CE6FBBD
:104DA00003CEDCF1000CCEF1004E38BFAEF1010EA7
:104DB000A6FB0C584FF000074FF00005E6FB0E87EE
:104DC000A1FB08C6A0FB07CE16EB0E0645F10005B9
:104DD000E1FB076515F1E04E7EBFA4F580345FEA84
:104DE00046066D4116F1800745F100054FEA172789
:104DF0004FEA066647EA0567A6F1DE46B6F1805F30
:104E00004FEA15251FD9384624F0010C05EBC47173
:104E1000BCF1FE6F01EB0C1102D8F0BCBDE80081C3
:104E200024425CBF01F5801E9EEAC47F02D4F0BC20
:104E3000BDE80081244238D4F0BCA1F1C041BDE8F6
:104E4000004100F0F1B94FEAD22242EA43524FEA60
:104E5000D323A7FB02864FEAD02040EA415007FB4C
:104E600003661EEA0E0F4FEAD12105FB026658BF0A
:104E7000A6EB0056B6EB00564FEA520E4EEAC37E42
:104E800018EB0E0E56EB530EBDD518EB02085E4123
:104E90007F1C55F10005B6E74FF480154FF0000771
:104EA0004FF000064FF00008ADE7F0BC4FF00000F7
:104EB00001F1C04101F00041BDE8008111EA0C1F81
:104EC0000CEA131500D00CE013EA0C1F00F025804B
:104ED0004FF00000F0BC81EA030101F00041BDE8A1
:104EE0000081F0BCBDE8004181EA030100F09CB9FB
:104EF000F0BCBDE8004170B500F048F9097EFC3E09
:104F000000F007B881EA03014FF0000001F0004112
:104F1000704781EA030100F087B9F0BCBDE80041A9
:104F20004FF0000021497047FFFDFBF9F7F5F4F25F
:104F3000F0EEEDEBE9E8E6E4E3E1E0DEDDDBDAD834
:104F4000D7D5D4D3D1D0CFCDCCCBCAC8C7C6C5C492
:104F5000C2C1C0BFBEBDBCBBBAB9B8B7B6B5B4B3A9
:104F6000B2B1B0AFAEADACABAAA9A8A8A7A6A5A494
:104F7000A3A3A2A1A09F9F9E9D9C9C9B9A99999858
:104F80009797969595949393929191908F8F8E8EFB
:104F90008D8C8C8B8B8A8989888887878685858488
:104FA00084838382828181800000FF070000F87F74
:104FB0004FEA1153A3F58063D3F11E03A8BFD3F1C9
:104FC000200C08DB4FF0004242EAC12252EA505264
:104FD00032FA03F0704709420BD4102BC4BF0020F3
:104FE000704703F5787CBCF1FF3F05D04FF0FF30F0
:104FF00070474FF00000704770B500F0C7F800BF71
:105000004992248000207047F0E710F0004248BF2A
:105010004042B0FA80F310FA03F10AD0C3F11D0345
:1050200003F580634FEA415002EB035202EBD121BA
:1050300070474FF000007047DFF848C170B51CEAB8
:10504000111E1EBF1CEA13159EEA0C0F95EA0C0FE9
:1050500000F06F8081EA030423EA4C134EEAD47E09
:1050600021EA4C1141F4801143F48013AE44A1FBBA
:10507000024CA0FB0365AEF17F7E361955EB0C05A3
:10508000A1FB034C4CF10003A0FB021C16EB0C0629
:10509000654153F10003094218BF46F0010613F4BD
:1050A000007F0BD14FEA03314FEA0530340341EA68
:1050B000155140EA16506FF003020AE04FEAC3218F
:1050C0004FEAC520F40241EA555140EA56506FF0CC
:1050D000020202EB2E4201EB025585EACE710AD0A4
:1050E0005FEA440C18BF24F0004450F1000041F185
:1050F000000120EAD47040F2FE7C624500D270BD0F
:10510000A84214BF4FF080444FF04044002E08BF27
:105110000024BEF1806FA8BFA1F1C041BDE870407E
:1051200080F282804FF0000001F1C04101F00041A7
:1051300070479EEA0C0F0CEA131518BF95EA0C0F86
:1051400006D04FF0000081EA030E0EF0004170BD62
:1051500000F01CF88900013E00F007B800F009B823
:105160004FEA430C5FEA5C5C08D081EA030100F07F
:105170005BB84FEA410C5FEA5C5CF6D14FF000008F
:10518000014970470000FF070000F87F0EF1020E92
:105190002EF0030E5EF8046B364205D4012A43EB71
:1051A000030515F5001F12D8012841EB010C1CF571
:1051B000001F0CD80ED14FEAD17C15F5001F0CEB67
:1051C0004C0C0CF1020C08BF4CEBD37C04E04FF00C
:1051D000080C01E04FEAD37C0CEB4C0526FA05F6EF
:1051E00006F00706B6F1040C06D20EEB860CBDE8FD
:1051F00070404CF0010C6047DFE80CF0090B020234
:105200004FF000414FF00000A1F5002170BD19469C
:105210001046012851EB010418BFD4F5001484BFD7
:10522000002001F0004170BD0808A0F500114FEA10
:105230003101704710B591EA030F48BF83F0004376
:105240003FF5BEAC841A71EB030C07D212198CF037
:10525000004C43EB0C03001B61EB0C01DFF8A4E1F5
:105260004FEA1154A4EB135C1EEA430F18BF9EEAE9
:10527000445F00F0B08023EA6E03524221EA0451F9
:10528000C3EB6E0338BF5B1EDCF1200E25D322FA80
:105290000CFE10EB0E0043FA0CFE41EB0E01CCF1BC
:1052A000200E03FA0EFE10EB0E0051F10001CCF1BE
:1052B000200E29D412FA0EF201EB0451BDE8104081
:1052C00058BF7047401C1CBFB2F1004F7047002808
:1052D0000CBF491C20F00100704712EB020E43EB9B
:1052E000030218BF4FF0010E4EEA4202ACF1200C4F
:1052F000DCF11E0E54D943FA0CFE10EB0E0051F1F6
:10530000FF31CCF11E0ED5D50EF1010E12FA0EFEB4
:10531000404141EB010101EB445C5FEA5C5C10D968
:1053200010EBDE7001EB045138BFBEF1004FBDE859
:10533000104018BF704700280CBF491C20F0010026
:10534000704730D24FEAD42C11F5001124F40064D8
:105350001BD0B1FA81F20B3AA41AA41ED2F1200399
:10536000914030FA03F31943904001EBCC71002CCB
:1053700001EB0451BDE81040A8BF704701F1C041E6
:105380004FF0000001F000417047B0FA80F310FACE
:1053900003F100D110BDE41A173C4805C90AE4E73F
:1053A00001EB045110BD491001EB0451BDE8104060
:1053B0004FEA300002E04FF0000170474A0008BF9A
:1053C0000042F8D0B2F5001F28BF704701F000413D
:1053D0004FF0000070479EEA445F07D011EA5E0F6D
:1053E000BDE8104004BF002100207047BDE8104018
:1053F00070B5FFF7CBFE00BF40DFF63E83F0004103
:10540000104670470000E0FF43004FEAD30C4FEA1C
:105410003C0C43401FBF40070CF1605113F0FE4F9E
:1054200070471CF0006F03D100200CF00041704762
:105430000CF0004343EA507010B540EACC0000F095
:1054400090FA00BF000000924FEA0001FFF7ECBEA7
:105450004FF000414FF00000A1F50021704700001F
:1054600090EA010F48BF81F0004100F1FE82421A2C
:105470003CBF801A89184FEAD0524FF07F4C1CEA8B
:10548000410FA2EBD15318BF9CEA026F00F03B80A2
:105490004FF0004C4CEA00204CEA012121FA03FCB9
:1054A00010EB0C0C1ED202F1FF325FEA1C2040EB25
:1054B000C25038BF70471CF07F0F4FEA400C18BF36
:1054C000BCF17F4F38BF7047C3F12003994008BF3C
:1054D00020F00100BCF17F4F38BF7047A0F1C04001
:1054E00000F085BA4FEA3C00000A40EBC25028BFEA
:1054F0001CF0FF0F4FEA400CE6D018BFBCF17F4F05
:1055000038BF7047EAE79CEA026F05D010EA5C0FEB
:1055100008BF00F00040704710B500F022FA00BF4D
:1055200064FBBE3E401058BFC0F14040491058BF18
:10553000C1F140418142EFF3008070474FF47F0C8E
:105540001CEAD0121EBF1CEAD11392EA0C0F93EA98
:105550000C0F00F0858090EA010F48BF42F4807282
:1055600040F4000C41F400002CF07F4120F07F401B
:1055700000B58142A2EB03020FF2081CACEB504EC7
:10558000C0F100009EF800E04FEA4E0E00FB0EFC5A
:1055900038BF49004FEA2C1C02F5FA020CFB0EF34F
:1055A0004FEACE1E4FEA112C4FEAC1210EEB635E8B
:1055B00042EB22420EFB0CFC4FEA1C5300FB031192
:1055C0004FEA112C4FEA01310EFB0CFC4FEADC4C88
:1055D00000FB0C11C14228BF09184CEB03335DF8E6
:1055E00004EB10EB410143EBC250B2F57C0F38BF26
:1055F000704729D512F0F00F1CBF00F1C04000F039
:1056000000407047008182838485868788898B8CDF
:105610008D8E8F919293959697999A9C9D9FA0A21B
:10562000A3A5A7A8AAACAEB0B2B3B5B7B9BCBEC06B
:10563000C2C5C7C9CCCED1D4D7D9DCDFE2E6E9EC0C
:10564000F0F3F7FAFE0000004FEA400C0CF1807C0A
:10565000BCF17E4F28BF7047B0F1C04000F0C7B921
:1056600090EA010F0CEAD11348BF42F48072624500
:1056700038BF634507D213F47F0F16D080EA0100CC
:1056800000F00040704710B500F06BF9097EFC3E59
:1056900000F005B880EA010000F00040704780EAA1
:1056A000010000F0004000F0A2B912F47F0F04BF27
:1056B0000248704780EA010000F099B90000C07FFD
:1056C00050EA010C00F113801CF5000F58BFBCF527
:1056D000000F01D48842704707D710F5000F58BF5C
:1056E00011F5000F15D488427047894270471CF5A8
:1056F000000F04D5BCF5000FF7D5814270474FF07D
:10570000807C1CEB400F38BF1CEB410F01D2814263
:10571000704710B500F025F9922449004FF0005071
:105720004FF08051FFF7FEBE41000B0ED3F19E02F9
:1057300008D950F400034FEA032323FA02F048BFCC
:105740004042704710B500F00CF900BF4992248028
:10575000002070476FF0004282EA2000704700008E
:10576000C10DD1F19E0206DB4FEA002343F0004356
:1057700023FA02F07047004207D54FEA4001B1F129
:10578000FE4F02D24FF00000704710B500F0E9F86C
:1057900049922480002070476FEA20007047000083
:1057A00010F0004148BF4042B0FA80F310FA03F213
:1057B000C3F19D030BD051EAC35101EB12205306F4
:1057C00038BF704700F1010008BF20F001007047AA
:1057D000B0FA80F310FA03F2C3F19D030AD0D905A1
:1057E00001EB1220530638BF704700F1010008BFDB
:1057F00020F001007047000050EA010C00F1138016
:105800001CF5000F58BFBCF5000F01D4884270474B
:1058100007D710F5000F58BF11F5000F15D48842B7
:105820007047894270471CF5000F04D5BCF5000F86
:10583000F7D5814270474FF0807C1CEB400F38BF9A
:105840001CEB410F01D28142704710B500F089F87E
:10585000922449004FF000504FF08051FFF762BE94
:105860004FF47F0C1CEAD0121EBF1CEAD11392EA3F
:105870000C0F93EA0C0F00F0478090EA010F48BF2D
:1058800042F480724FF0004C4CEA00204CEA0121B7
:1058900002EB0302A0FB0113A2F50002002918BFCE
:1058A00043F001035B0028BF4FEA330342EB22427F
:1058B0005FEA132C4CEBC2502EBFBCEB436FB2F52A
:1058C0007C0F70474FEA036CBCF1004F08BF20F01B
:1058D0000100B2F57C0F38BF70470BD582F0FF0294
:1058E00012F5803FC8BF704700F1C040D8BF00F03C
:1058F0000040704700F5000C5FEA4C0C48BF704751
:10590000B0F1C04000F073B890EA010F0CEAD11377
:1059100048BF42F48072624538BF634504D280EAD2
:10592000010000F00040704710B500F01AF800BF09
:105930008900013E00F007B800F009B85FEA410CA9
:105940005FEA1C6C08D080EA010000F050B85FEA02
:10595000400C5FEA1C6CF6D14FF00040A0F58000CF
:1059600070470EF1020E2EF0030E5EF8044B244237
:1059700004D44FEA4102B2F17F4F11D84FEA4003FD
:10598000B3F17F4F0CD80ED14FEAD07CB2F17F4FEC
:105990000CEB4C0C0CF1020C08BF4CEBD17C04E07E
:1059A0004FF0080C01E04FEAD17C0CEB4C0324FAD9
:1059B00003F404F00704B4F1040C06D20EEB840CDB
:1059C000BDE810404CF0010C6047DFE80CF0070820
:1059D00002024FF00040A0F5800010BD08464200D2
:1059E00018BFD2F1807288BF00F0004010BDFF21C7
:1059F00041EAD050C005704751EA000C00F1138015
:105A00001CF5000F58BFBCF5000F01D48142704750
:105A100007D711F5000F58BF10F5000F15D48142BC
:105A20007047894270471CF5000F04D5BCF5000F84
:105A3000F7D5884270474FF0807C1CEB410F38BF90
:105A40001CEB400F01D28842704780EA010081EAD6
:105A5000000180EA0100FFF7F8BE000090EA010FA4
:105A600048BF81F000413FF502AD421A04D882F0F0
:105A70000042A0EB020011444FEAD0524FF07F4C9D
:105A80001CEA410FA2EBD15318BF9CEA026F4AD027
:105A90004FF0004C4CEA00204CEA012121FA03FCB3
:105AA000B0EB0C0C0FD412F0FE0F36D05FEA4C00B6
:105AB0001DD5001240EBC25038BF70471CF03F0F9D
:105AC00018BF70470BE0A2F101025FEA1C2040EB17
:105AD000C25038BF70471CF07F0F18BF7047C3F12A
